:100000000C9482000C94AA000C94AA000C94B703E0
:100010000C94B7030C94B7030C94AA000C94AA0098
:100020000C94AA000C94AA000C94AA000C94AA00A8
:100030000C94AA000C94AA000C94AA000C94AA0098
:100040000C947C1C0C94AA000C94611F0C94931FBC
:100050000C94AA000C94AA000C94AA000C94AA0078
:100060000C9496190C94AA00081B201B201B1E1B25
:10007000201B061B201B201B201BF91A201B201BEA
:10008000101B1C1B1A1B201B201B201B181B7C3C3D
:100090003E5E2B3D3F2F5B5D3B2C2A225C00000027
:1000A0000008000201000003040700000000000037
:1000B0000000010204081020408001020408102002
:1000C00001020408102004040404040404040202CD
:1000D00002020202030303030303000000002300E3
:1000E0002600290000000000250028002B00000049
:1000F0000000240027002A00B9026408A90BAC18EC
:10010000C31FC00211241FBECFEFD8E0DEBFCDBF9A
:1001100012E0A0E0B1E0EEE7FCE402C005900D9231
:10012000A630B107D9F726E0A6E0B2E001C01D92E3
:10013000A135B207E1F710E0C2E0D1E004C0229798
:10014000FE010E94C624C83FD107C9F70E942022A1
:100150000C9432260C940000CF92DF92EF92FF9223
:100160000F931F93E82FF92F05C0015011092109A2
:10017000310961F1908196239417B9F305C00150BC
:1001800011092109310911F1908196239413F7CFB8
:10019000C12CD12CE12CF12C0AC08FEFC81AD80A3F
:1001A000E80AF80A0C151D052E053F0579F0808137
:1001B0008623841791F36C2D7D2D8E2D9F2D1F91FD
:1001C0000F91FF90EF90DF90CF90089560E070E086
:1001D00080E090E01F910F91FF90EF90DF90CF9023
:1001E0000895CF93DF9300D000D000D0CDB7DEB715
:1001F00026E040E052EC61E070E080EB95E00E9488
:10020000FF1E40E052EC61E070E089E292E00E9463
:10021000BA0485EE94E00E941C180E943C1B61E029
:10022000809108010E94811DECE0F2E01192119290
:1002300082E0E032F807D1F788E292E00E943E1BAC
:10024000811112C06EE071E080EB95E00E945120B8
:1002500042E251E06BE271E0CE0101960E94D81AB1
:10026000CE0101960E94011C67E371E080EB95E0EE
:100270000E9444206AE080E992E00E94BD0681115C
:1002800003C06FE471E002C06BE671E080EB95E0C3
:100290000E94512026960FB6F894DEBF0FBECDBF48
:1002A000DF91CF910895AF92BF92CF92DF92EF92FC
:1002B000FF920F931F93CF93DF93CDB7DEB7A19734
:1002C0000FB6F894DEBF0FBECDBF0E946A1B590166
:1002D0006A017B0123E14DE751E060E972E0CE0164
:1002E00001960E94D60720E432E44FE050E061E03E
:1002F000809106010E94F01D6093240270932502F4
:100300008093260290932702A0910A02B0910B02DB
:10031000FD01EE0FFF1FE45FFD4F209108023091B9
:10032000090200811181201B310B71836083260F2C
:10033000371F30930902209308021196AA30B105A5
:100340002CF4B0930B02A0930A0204C010920B028B
:1003500010920A02C9016AE070E00E946F24709353
:10036000070260930602882777FD8095982F0E94E8
:10037000342322E539E44DE959EB0E94E82320EBD0
:1003800032E748EC5EE30E943122609320027093D2
:1003900021028093220290932302CE0101960E94B3
:1003A000B006882309F4B5C00A2D10E00053184F99
:1003B0004AE050E0B801CE0101960E941A216FE296
:1003C000CE0101960E9446204AE050E06B2DCE01FE
:1003D00001960E9413216FE2CE0101960E944620F1
:1003E0004AE050E06C2DCE0101960E94132160E29C
:1003F000CE0101960E9446204AE050E06D2DCE01CC
:1004000001960E9413216AE3CE0101960E944620C4
:100410004AE050E06E2DCE0101960E9413216AE35E
:10042000CE0101960E9446204AE050E06F2DCE0199
:1004300001960E94132169E0CE0101960E94462098
:10044000409120025091210260912202709123027A
:1004500022E030E0CE0101960E940D22CE010196ED
:100460000E949E064AE050E0B80180EB95E00E94B1
:100470001A216FE280EB95E00E9446204AE050E0AE
:100480006B2D80EB95E00E9413216FE280EB95E0ED
:100490000E9446204AE050E06C2D80EB95E00E94DF
:1004A000132160E280EB95E00E9446204AE050E094
:1004B0006D2D80EB95E00E9413216AE380EB95E0BF
:1004C0000E9446204AE050E06E2D80EB95E00E94AD
:1004D00013216AE380EB95E00E9446204AE050E059
:1004E0006F2D80EB95E00E94132169E080EB95E091
:1004F0000E944620409120025091210260912202E8
:100500007091230222E030E080EB95E00E940D2202
:1005100006C062E971E080EB95E00E9451204091B5
:10052000200250912102609122027091230222E068
:1005300030E089E292E00E940B226AE089E292E0D8
:100540000E94462061E070E080E090E00E94F51C8F
:10055000A1960FB6F894DEBF0FBECDBFDF91CF914D
:100560001F910F91FF90EF90DF90CF90BF90AF90D1
:10057000089520E045E069E089E292E00C948A0465
:1005800089E292E00C94310420918A0230918B022E
:1005900028173907B9F490914802809149029817B9
:1005A00089F0E0914802F0E0E65BFD4F8081209108
:1005B000480230E02F5F3F4F2F73332720934802CC
:1005C00090E008958FEF9FEF08951F93CF93DF93EF
:1005D000DC015C968D919C915D97009749F481E0D8
:1005E00090E013969C938E93129780E090E03BC02E
:1005F0005196ED91FC91529750962C915097322F35
:1006000030951FB75E964C915E9741FB772770F946
:1006100041FD6095F8944081772311F0422B01C091
:1006200043234083EC012197F1F748E0508160FFBC
:1006300002C0522B01C053235083EC012197F1F7E4
:100640006695415099F78081772311F0832301C08B
:10065000822B80831FBF5C968D919C915D97019743
:10066000F1F781E090E0DF91CF911F910895209103
:100670008A0230918B022817390781F49091480241
:1006800080914902981751F0E0914802F0E0E65B52
:10069000FD4F8081992787FD909508958FEF9FEFFB
:1006A000089520918A0230918B022817390771F43E
:1006B000809149022091480290E0805C9F4F821B0C
:1006C000910960E470E00E946F24089580E090E05A
:1006D000089520918A0230918B022817390739F446
:1006E0008FB7F89410924902109248028FBF089574
:1006F000E0918A02F0918B02E817F90769F4A38967
:10070000B4899C918589809589238C9310928B0262
:1007100010928A0281E0089580E00895CF93DF93DC
:10072000EC018A8D9B8D892BF1F080918A0290914A
:100730008B028C179D07B9F0009711F00E94780387
:100740008E8D8E7F8E8F1092490210924802D09328
:100750008B02C0938A02EB89FC8980819D89892B59
:10076000808381E001C080E0DF91CF9108951F92E6
:100770000F920FB60F9211242F933F934F935F93D5
:100780006F937F938F939F93AF93BF93EF93FF9359
:10079000E0918A02F0918B02309709F451C0868D66
:1007A000A685B785958581FF04C08C91892329F49E
:1007B00047C08C91892309F043C0A389B4899C91D7
:1007C0008589809589238C93868997890197F1F78C
:1007D000208D318DA685B785758558E040E0C9012B
:1007E0000197F1F7842F90E095958795482F6C91AC
:1007F000672309F04068515091F7868D81FD40953F
:100800008091490290E001968F73992720914802C8
:10081000281749F0A0914902B0E0A65BBD4F4C9368
:100820008093490203C0868D8160868F828D938D6F
:100830000197F1F7A389B4898C919589892B8C93C1
:10084000FF91EF91BF91AF919F918F917F916F91A8
:100850005F914F913F912F910F900FBE0F901F907E
:10086000189520EB31E0FC01318320830C94780350
:100870001F93CF93DF93EC01162F6E8D66956170F9
:1008800081E06827812F0E94BA1D61E0812F0E94BC
:10089000811D812F90E0FC01EE54FF4FE491E88B25
:1008A000FC01EA53FF4FE491F0E0EE0FFF1FEC5123
:1008B000FF4F859194919A8B898BDF91CF911F91F6
:1008C00008951F93CF93DF93EC01162F60E0812FE3
:1008D0000E94811D8E8D81FD04C061E0812F0E94E8
:1008E000BA1D1C87812F90E0FC01EE54FF4FE4916C
:1008F000ED87FC01EA53FF4FE491F0E0EE0FFF1F9C
:10090000E652FF4F859194919F878E87DF91CF911B
:100910001F910895FF920F931F93CF93DF93EC01E4
:10092000F62E522F1B821A8208EE13E020E030E0F0
:100930000C831D832E833F8380EB91E09983888312
:100940001F8A1E8A198E188E1B8E1A8E1D8E1C8E63
:100950008E8D8E7F50FB81F98E8F642FCE010E9489
:1009600038046F2DCE01DF91CF911F910F91FF9031
:100970000C946104CF93DF93EC019A01AB011B8EC1
:100980001A8E198E188E1F8A1E8A60E079E08DE318
:1009900090E00E94A524C9012430310520F0B9015E
:1009A0006350710902C061E070E07D8F6C8FEC854F
:1009B000E63108F068C0B901769567956431710534
:1009C00018F06351710902C061E070E07F8B6E8B9B
:1009D000069718F0C901059702C081E090E0998F51
:1009E000888FC901880F991F820F931F969587954D
:1009F000969587958D30910510F00C9702C081E097
:100A000090E09B8F8A8F20916800E83050F091E051
:100A1000EE3008F490E081E001C0880F9A95EAF783
:100A200001C084E0822B809368002C85283038F048
:100A30002E3040F0263148F48CE690E008C08DE678
:100A400090E005C08BE690E002C080E090E09C8BD7
:100A50008B8B283030F481E001C0880F2A95EAF7AB
:100A60000DC0822F90E02E3010F4089701C00E9731
:100A700091E001C0990F8A95EAF7892F8D8B8C8DB3
:100A80009D8D0197F1F7CE01DF91CF910C948E03EC
:100A9000CF93CFB7F89480918F02811127C0E0EDFA
:100AA000F0E08491ECEBF0E09491E82FF0E0EE0FB1
:100AB000FF1FE251FF4FA591B4918C91892321F43E
:100AC00061E08AE00E94BA1D61E08AE00E94811D17
:100AD0008CB580618CBD8CB580648CBD61E08DE08F
:100AE0000E94811D61E08BE00E94811D80918F0238
:100AF0008F5F80938F02CFBFCF910895CF93DF9305
:100B00001F92CDB7DEB76983DC01ED91FC910280C5
:100B1000F381E02D41E050E0BE016F5F7F4F09950A
:100B20000F90DF91CF910895CF93DF93EC01898DE2
:100B30009A8D009759F0FC01138212820E942A11AB
:100B4000E98DFA8D22813381232B31F081E090E011
:100B50009B838A8380E090E0DF91CF910895FC0130
:100B6000818D928D009711F00C94CA0E0895CF9349
:100B7000DF931F92CDB7DEB741E050E0BE016F5F5B
:100B80007F4F0E94DB0C019719F4898190E002C02D
:100B90008FEF9FEF0F90DF91CF910895FC01818D32
:100BA000928D009711F00C94B7058FEF9FEF089589
:100BB0000F931F93CF93DF938C01FC01818D928D56
:100BC0000097B9F00E94B705EC018F3FFFEF9F0738
:100BD00099F0F801818D928DFC01428553856485E1
:100BE000758541505109610971090E942E0ECE018F
:100BF00005C080E090E002C08FEF9FEFDF91CF91C2
:100C00001F910F910895CF92DF92EF92FF920F9371
:100C10001F93CF93DF93EC017B016A011B821A8241
:100C200008EE13E020E030E00C831D832E833F8329
:100C300080EC91E0998388838DE190E00E94E42428
:100C40009A8F898F009779F02DE1F701DC010190EF
:100C50000D922A95E1F74CE050E0B601CE010C96DA
:100C60000E942326188EDF91CF911F910F91FF9044
:100C7000EF90DF90CF900895FC011382128248EE2E
:100C800053E060E070E0448355836683778380ECB3
:100C900091E091838083128E118E14860895DC0179
:100CA0005996ED91FC915A97309729F0628573859A
:100CB0008485958508956FEF7FEFCB010895DC0162
:100CC0005996ED91FC915A97309729F06389748970
:100CD00085899689089560E070E0CB010895CF92F0
:100CE000DF92EF92FF92CF93DF93EC01898D9A8D83
:100CF000892BD9F0CE010E945F066B017C01CE01E9
:100D00000E944F06A7019601261B370B480B590B73
:100D1000DA01C901811530E89307A105B10538F062
:100D20008FEF9FE7A0E0B0E002C080E090E0DF91AD
:100D3000CF91FF90EF90DF90CF900895CF93DF9306
:100D4000EC01898D9A8D009741F00E94110F898DD9
:100D50009A8D0E947C251A8E198EDF91CF9108956D
:100D6000DC015996ED91FC915A97309721F081E082
:100D70009581911101C080E008950F931F93CF9347
:100D8000DF93EC01462F61E00E94A109811102C0AE
:100D900080E01DC08E01045F1F4F41E0BE01C8010D
:100DA0000E947116882359F0B801CE018A960E94DC
:100DB0008B0C91E0811101C090E0892F08C040E0C8
:100DC000BE01C8010E947116882311F3EDCFDF9197
:100DD000CF911F910F910895FC01DB0112968D9127
:100DE0009C9113979383828382ED91E0918380831A
:100DF00014968C911497848315968C9115978583FE
:100E000016964D915D916D917C911997468357830C
:100E1000608771871A964D915D916D917C911D97B8
:100E200042875387648775871E964D915D916D91BA
:100E30007C91519746875787608B718B52968C9126
:100E40005297828B53964D915D916D917C915697FF
:100E5000438B548B658B768B57964D915D916D913D
:100E60007C915A97478B508F618F728F5B968D91D3
:100E70009C915C97948F838F08954F925F926F92AD
:100E80007F928F929F92AF92BF92CF92DF92EF921A
:100E9000FF920F931F93CF93DF93CDB7DEB7C75465
:100EA000D1090FB6F894DEBF0FBECDBF6C014A0169
:100EB0003901665D7F4F5E018EE1A80EB11CC50150
:100EC0000E94EC061C821B8282ED91E09A8389834A
:100ED0001E828401FE0131967F015A2C4B2C6FE259
:100EE00070E0C8010E9418260097E9F1F8012081FE
:100EF0002F3219F40F5F1F4FF2CF801B8D3008F097
:100F00008CE0A82EB12CA501B801CE01CB960E9491
:100F10002326EBE3F0E0EC0FFD1FEA0DFB1D108232
:100F2000C7010E94110F21E0AE01455C5F4F652DA6
:100F3000742DC7010E944510811109C0F60113826A
:100F4000128282ED91E091838083158216C00A0D92
:100F50001B1D852D942D0E94110FC2015E2C4F2C5C
:100F6000E92EF82EBCCF08191909F301118300836B
:100F7000652D742DC6010E94EC06C601C95BDF4FCA
:100F80000FB6F894DEBF0FBECDBFDF91CF911F919A
:100F90000F91FF90EF90DF90CF90BF90AF909F9018
:100FA0008F907F906F905F904F9008959F92AF9237
:100FB000BF92CF92DF92EF92FF920F931F93CF9346
:100FC000DF93CDB7DEB7C955D1090FB6F894DEBFB0
:100FD0000FBECDBF7C016B015A01922E9E01285A93
:100FE0003F4FCE01CB960E943D076A960EAD1FADD6
:100FF0006A970A0D1B1DF801808181110AC0BE018C
:10100000655C7F4FCE0101960E94EC064CEC51E0EE
:1010100041C019A218A282ED91E09F8F8E8F1BA272
:1010200021968FAD2197811104C0C7010E943C0613
:1010300037C08250823060F4B601665D7F4F292D43
:10104000A801CE014E960E944510811110C0EDCF2F
:10105000292DA801BE01655C7F4FCE014E960E94EE
:101060004510882311F3CE01CB960E94110F892DD4
:10107000867041F049A95AA96BA97CA9CE014E9668
:101080000E942E0EBE01625E7F4FCE0101960E942D
:10109000EC06A801BE016F5F7F4FC7010E940306E7
:1010A000C701C75ADF4F0FB6F894DEBF0FBECDBFE2
:1010B000DF91CF911F910F91FF90EF90DF90CF9034
:1010C000BF90AF909F900895109295021092960253
:1010D0001092990210929B0282E090E0A0E0B0E0B2
:1010E00080939C0290939D02A0939E02B0939F02D6
:1010F0001092B3021092BD021092BC0282ED91E0F8
:101100009093BB028093BA021092BF0208959FB7DA
:10111000F89420918E0280918C02213019F48DBBBD
:101120009FBF08958FBF089520918E02222399F0CA
:101130003FB7F89420918E02213059F42DB32093BB
:101140008C024DB320918D02209524232DBB3FBFEF
:1011500002C030938C028CBD9DBD08958EBD0000F1
:101160000DB407FEFDCF8EB508958FEF0C94AE0839
:1011700061E0FC0184810E94BA1D8091D90288231C
:1011800039F01092D90280918E0281110C94870857
:101190000895CF93DF93EC018091D902811109C0AA
:1011A00081E08093D9028091DA029091DB020E9463
:1011B000940860E08C81DF91CF910C94BA1DCF939D
:1011C000DF93EC018E81882389F08F8198859C01C3
:1011D0002F5F3F4F38872F838230924018F40E9450
:1011E000B508F3CFCE010E94B8081E82DF91CF91DF
:1011F0000895673028F026E1FC01258380E00895FA
:10120000623081F030F4662359F06130B1F480E54A
:1012100015C0643059F040F0653079F482E50EC0B5
:1012200080E505C081E503C081E508C082E58093C3
:10123000DA0281E08093DB02089583E58093DA028D
:101240001092DB0281E008950F931F93CF93DF93F9
:10125000EB010E94C61C8B010E94B5088F3F49F02C
:101260000E94C61C601B710B6C177D07A8F380E001
:1012700001C081E0DF91CF911F910F910895CF922E
:10128000DF92FF920F931F93CF93DF9300D000D094
:10129000CDB7DEB76C01F62E29833A834B835C838E
:1012A0000E94DF08C6010E94C9086CE271E0C60115
:1012B0000E9424098F2D80640E94AE0808E110E08E
:1012C0005C814B813A812981DA01C901002E04C079
:1012D000B695A795979587950A94D2F729833A836F
:1012E0004B835C830E94AE080850110929813A8122
:1012F0004B815C81083F8FEF180731F7FF2029F001
:10130000E8E0FE1621F08FEF03C085E901C087E811
:101310000E94AE0810E00E94B508F601828787FFA0
:1013200004C01F3F11F01F5FF6CF0F900F900F907A
:101330000F90DF91CF911F910F91FF90DF90CF9091
:101340000895BF92CF92DF92EF92FF920F931F9377
:10135000CF93DF93EC01B62E1B8619861E821D8269
:101360004C830E94C61C8B0161E08C810E94811D10
:1013700061E08C810E94BA1D0E94480582E580933D
:10138000DA021092DB028091DA029091DB020E9475
:1013900094082AE0F22E8FEF0E94AE08FA94D9F753
:1013A00080918E0281110E948708CE010E94C90897
:1013B00020E030E0A90160E0CE010E943F09F82E54
:1013C0008A8781E0F81649F00E94C61C601B710BE9
:1013D000613D774068F381E04BC02AEA31E040E0AC
:1013E00050E068E0CE010E943F0982FF02C0FB8608
:1013F0000DC094E0F92E0E94B5088A87FA94D9F7B7
:101400008A3A11F082E034C082E08B878B8582308B
:1014100031F4C12CD12CE12C80E4F82E03C0C12C76
:10142000D12C760120E030E0A90167E3CE010E94D3
:101430003F09A701960169E2CE010E943F098A8710
:10144000882349F00E94C61C601B710B613D7740E8
:1014500048F388E00DC08B85823031F520E030E024
:10146000A9016AE3CE010E943F09882381F086E04A
:101470008D83CE010E94B80880E0DF91CF911F914B
:101480000F91FF90EF90DF90CF90BF9008950E9452
:10149000B508807C803C11F483E08B870E94B508FE
:1014A0000E94B5080E94B508CE010E94B8086B2DB5
:1014B000CE01DF91CF911F910F91FF90EF90DF90C0
:1014C000CF90BF900C94F9080F931F93CF93DF93A5
:1014D000EC010E94C61C8B010E94B5088A878F3FD1
:1014E00049F40E94C61C601B710B6D327140A0F361
:1014F0008FE003C08E3F39F08DE08D83CE010E94D6
:10150000B80880E001C081E0DF91CF911F910F9179
:101510000895CF92DF92EF92FF920F931F93CF9394
:10152000DF93EC0169010115110509F462C0C801DE
:10153000820F931F8130924008F05DC08E81882316
:1015400071F088819981AA81BB81481759076A0780
:101550007B0729F48F819885C816D90610F5488332
:1015600059836A837B838B85833039F039E0440F5C
:10157000551F661F771F3A95D1F79A01AB0161E1BC
:10158000CE010E943F09882319F083E08D8333C088
:10159000CE010E94640A882371F118861F8281E0BF
:1015A0008E838F8198858C159D0540F40E94B50827
:1015B0008F819885019698878F83F3CF6701E00E1E
:1015C000F11ECE14DF0431F00E94B508F6018193BC
:1015D0006F01F7CF8F819885800F911F98878F8338
:1015E0002985222319F08115924018F0CE010E941E
:1015F000DF0881E004C0CE010E94B80880E0DF91DE
:10160000CF911F910F91FF90EF90DF90CF900895B1
:10161000EF92FF920F931F93790100E012E020E018
:1016200030E00E94890A1F910F91FF90EF9008957A
:10163000CF92DF92EF92FF920F931F93CF93DF939E
:1016400000D0CDB7DEB78C01862F49835A830E9424
:10165000AE084981C42E5A81D52EE12CF12CF60119
:1016600081916F010E94AE08FFEFEF1AFF0AE114AB
:1016700082E0F806A1F78FEF0E94AE088FEF0E947C
:10168000AE080E94B508F80182878F71853039F065
:1016900081E18583C8010E94B80880E001C081E033
:1016A0000F900F90DF91CF911F910F91FF90EF90CE
:1016B000DF90CF9008950F931F93CF93DF93EC01AA
:1016C0008901411551056105710511F482E132C0AE
:1016D0008B85833039F089E0440F551F661F771FD3
:1016E0008A95D1F79A01AB0168E1CE010E943F09CA
:1016F000882311F084E01EC0A8016EEFCE010E9485
:10170000180B8823C1F068E572E0CE010E9424091D
:10171000811102C085E10EC020E030E0A9016DE03A
:10172000CE010E943F09811104C00E94B5088823A0
:1017300039F084E18D83CE010E94B80880E004C0B6
:10174000CE010E94B80881E0DF91CF911F910F91E7
:10175000089580E58093DA021092DB020895CF931A
:10176000DF93EC019C012A5F3F4F41E050E060E0D5
:1017700070E08B8D9C8D0E9406158823A1F04F8907
:10178000588D698D7A8D452B462B472B71F44E81F0
:101790005F81688579854F8B588F698F7A8F8C81AF
:1017A00080688C8302C080E001C081E0DF91CF912E
:1017B0000895CF92DF92EF92FF921F93CF93DF9322
:1017C000EC010E94AF0B811102C080E04BC0EB8D99
:1017D000FC8DCE80DF80E884F98482E0C81AD108CD
:1017E000E108F108058404C0CC0CDD1CEE1CFF1CD4
:1017F0000A94D2F74685578560897189C40ED51E33
:10180000E61EF71E148181E0C81AD108E108F1082C
:10181000112361F0C701B601610F711D811D911D7A
:101820000E945013882389F21150F2CFEB8DFC8D6A
:10183000C12C82E0D82EE12CF12C058404C0CC0C04
:10184000DD1CEE1CFF1C0A94D2F74B895C896D8964
:101850007E894C0D5D1D6E1D7F1D4B8B5C8B6D8BD2
:101860007E8B81E0DF91CF911F91FF90EF90DF9011
:10187000CF900895CF93DF93EC01462F6E857F853F
:10188000888999890E941513882341F08A8920E26A
:10189000829FC00111248B519D4F02C080E090E0D7
:1018A000DF91CF910895282FFB018BE030E2319337
:1018B0008150E9F7A22FB92F20E037E09D919923BD
:1018C00019F19E3219F0EEE8F0E008C03A3011F15B
:1018D00028E03AE0F3CF31964917E1F04491411105
:1018E000FACF3217B8F04FED490F4E3598F441E07A
:1018F000420FFB01E20FF11D2FE9290F2A3108F4F5
:1019000090529083242FDACF81E0FB0190819032B6
:1019100009F480E008950F931F93CF93DF93EC01B8
:101920008B018D81882311F080E040C0FB01878905
:101930008031B1F482E08D831F8A188E198E1A8E41
:10194000408D518D60E070E095E0440F551F661F9B
:10195000771F9A95D1F74B8B5C8B6D8B7E8B15C067
:10196000803211F783E08D83FB01428D538D648DAE
:10197000758D4F8B588F698F7A8F9E012D5E3F4FEB
:10198000C8010E94FA13882379F21C8F0B8F81E023
:101990008C831E821F82188619861A861B861C86D7
:1019A0001D861E861F86188A198A1A8ADF91CF9192
:1019B0001F910F9108952F923F924F925F926F92D5
:1019C0007F928F929F92AF92BF92CF92DF92EF92CF
:1019D000FF920F931F93CF93DF93EC016B015A019A
:1019E0008D81811103C08FEF9FEFDAC08C8180FF62
:1019F000FACF4B895C896D897E898A859B85AC8508
:101A0000BD852501612C712C8A019B01081B190BD6
:101A10002A0B3B0B041515052605370518F45A014A
:101A2000A81AB90A25011E0126E0220E311C411414
:101A3000510409F47BC04A855B856C857D854A012C
:101A400081E09822ED818A019B01F9E03695279586
:101A500017950795FA95D1F78B8D9C8DE23051F44F
:101A6000FC01628D738D848D958D600F711F821FB7
:101A7000931F3EC0FC0174807A94702281149104FB
:101A8000C9F4711017C0452B462B472B49F48F8999
:101A9000988DA98DBA8D8E839F83A887B9870AC038
:101AA0004E815F816885798591010E947613882334
:101AB00009F499CFEB8DFC8D6E817F8188859985A6
:101AC0006250710981099109058404C0660F771F6E
:101AD000881F991F0A94D2F70685178520893189B6
:101AE000600F711F821F931F670D711D811D911D56
:101AF00020E032E02819390932012415350508F4AF
:101B000039012C8126FD04C06114F2E07F06A1F5A5
:101B100000910A0110910B0120910C0130910D01EF
:101B2000601771078207930719F426C0C50138C0F2
:101B3000760183019401AB01BC018091E302909195
:101B4000E4020E94890A882309F44DCFC60CD71CF1
:101B500004C0E81BF90BCE0EDF1E8A859B85AC8581
:101B6000BD85860D971DA11DB11D8A879B87AC87FA
:101B7000BD87461857085BCF40E00E9415138823A5
:101B800009F431CFC4018B519D4FD6019C01260D24
:101B9000371DFC01E217F307E1F241914D93FACFB3
:101BA000DF91CF911F910F91FF90EF90DF90CF9039
:101BB000BF90AF909F908F907F906F905F904F906D
:101BC0003F902F900895FF920F931F93CF93DF9331
:101BD0001F92CDB7DEB78C01FC018581823018F4ED
:101BE00080E090E034C0F8014285538564857585B6
:101BF000A5E07695679557954795AA95D1F7F42F67
:101C0000FF70FF2E41E050E0BE016F5F7F4FC801C3
:101C10000E94DB0C019719F4298130E002C02FEFFC
:101C20003FEF2F3F3F4FE1F2F80142855385648536
:101C30007585415E5F4F6F4F7F4F42875387648743
:101C40007587F0E2FF9EC00111248B519D4F0F90CC
:101C5000DF91CF911F910F91FF9008954F925F9266
:101C60006F927F92AF92BF92CF92DF92EF92FF92EC
:101C70000F931F93CF93DF93EC016A017B012D81BA
:101C8000222309F457C08B899C89AD89BE898417AA
:101C90009507A607B70708F44DC04EC08A859B85F7
:101CA000AC85BD85EB8DFC8DE585F0E03996AC010A
:101CB000BD0141505109610971090E2E04C076958C
:101CC0006795579547950A94D2F797018601015079
:101CD00011092109310904C03695279517950795F3
:101CE000EA95D2F70417150726073707B0F58F894D
:101CF000988DA98DBA8D8E839F83A887B987280177
:101D000039015E0186E0A80EB11C41145104610442
:101D1000710461F14E815F816885798595018B8DB4
:101D20009C8D0E94761391E0491A51086108710850
:101D30008111EBCF80E01FC02230C1F0C114D1046B
:101D4000E104F10409F0AACF1E821F8218861986C9
:101D50001A861B861C861D860DC0892B8A2B8B2B11
:101D600031F2041B150B260B370BC9CFCA86DB8655
:101D7000EC86FD8681E0DF91CF911F910F91FF905E
:101D8000EF90DF90CF90BF90AF907F906F905F907B
:101D90004F9008950F931F93CF93DF93EC018D81A4
:101DA0008823C9F18C8187FF30C061E0CE010E9499
:101DB0003A0C8C01009779F18D81823048F44B897F
:101DC0005C896D897E89F801448F558F668F778F86
:101DD0004F89588D698D7A8DF801538F428F758B9D
:101DE000648BE091DC02F091DD02309759F0B8018C
:101DF0006A5E7F4FC80148960995F801808D918DE4
:101E0000938B828B8C818F778C83DF91CF911F9105
:101E10000F910C94DA1280E0DF91CF911F910F9116
:101E20000895CF93DF93EC010E94CA0E882319F026
:101E30001D8281E001C080E0DF91CF9108954F9233
:101E40005F926F927F92AF92BF92CF92DF92EF92AA
:101E5000FF920F931F93CF93DF9300D000D0CDB7A5
:101E6000DEB75C016A017B01FC0185818130F1F400
:101E7000848181FF1BC0F50183899489A589B68976
:101E800084179507A607B70788F0892B8A2B8B2B19
:101E900009F479C0F5014284538464847584B701E0
:101EA000A601C5010E942E0E811102C080E06CC007
:101EB000F501838D948DC114D104E104F10471F412
:101EC0004789508D618D728D0E941B16882371F396
:101ED000F501178A108E118E128E3AC0F5014681D7
:101EE0005781608571859E012F5F3F4F0E94761359
:101EF0008823E1F249815A816B817C81F501838DD0
:101F0000948DFC012789203129F408EF1FEF20E090
:101F100030E004C008EF1FEF2FEF3FE040175107FC
:101F200062077307A8F40E941B16882309F4BECF2A
:101F3000F50146815781608571850FEF1FEF2FEF07
:101F40003FE0838D948D0E946514882309F4AECF01
:101F5000F501C38AD48AE58AF68A848180688483FD
:101F6000C5010E94CA0E882309F4A0CFB701A601BB
:101F70004C145D046E047F0410F4B301A201C5018A
:101F80000E942E0E01C081E00F900F900F900F90D5
:101F9000DF91CF911F910F91FF90EF90DF90CF9045
:101FA000BF90AF907F906F905F904F900895FF9299
:101FB0000F931F93CF93DF93EC01F42E80E2689F81
:101FC000F0011124EB51FD4F8385817129F0842F9D
:101FD000827411F080E053C06A8B80910A01909165
:101FE0000B01A0910C01B0910D018E879F87A88BEA
:101FF000B98B4489558960E070E0BA0155274427C0
:10200000028D138D20E030E0402B512B622B732B7F
:102010004F8B588F698F7A8F8385887151F4048D27
:10202000158D268D378D0B8B1C8B2D8B3E8B81E078
:102030000CC0803179F69E012D5E3F4F8B8D9C8DBB
:102040000E94FA13882331F284E08D838F2D8F70E4
:102050008C831E821F82188619861A861B861C8610
:102060001D86F6FE0BC040E050E0BA01CE01DF91C4
:10207000CF911F910F91FF900C941F0F81E0DF9182
:10208000CF911F910F91FF900895AF92BF92CF9281
:10209000DF92EF92FF920F931F93CF93DF93CDB711
:1020A000DEB72B970FB6F894DEBF0FBECDBF7C0115
:1020B0006B01CA01B22EF70125812111B9C0BE0101
:1020C0006F5F7F4F0E94530C882309F4B1C0F60163
:1020D000838D948DF701948F838FF601168217827A
:1020E000108611861286138614861586A12CF60199
:1020F000028513852485358583899489A589B689C8
:10210000081719072A073B07E8F545E03695279594
:10211000179507954A95D1F70F70C6010E94E30DF8
:10212000009709F485C0FC012081222311F0253E8F
:10213000B9F4A1100EC0F701028B40910A01509131
:102140000B0160910C0170910D0146875787608BE0
:10215000718BFC018081AA24A3948111C8CF12C085
:102160004BE050E0BC01CE0101960E940B26892B6A
:1021700009F0BDCF8B2D8073803309F459C04B2DEE
:10218000602F52C08B2D8271823109F051C0AA207C
:1021900041F061E0C7010E943A0C8C01009779F48C
:1021A00047C0F6018581823009F442C0C6010E9411
:1021B000D90B8823E9F1F701128A05EE12E080E2DB
:1021C000F80111928A95E9F78BE0FE013196D8016A
:1021D00001900D928A95E1F7E091DC02F091DD0229
:1021E000309739F0B801625F7F4FC801409609957A
:1021F00009C081E298E2F801918B808B80E098E041
:1022000097878687F80180899189938B828B918F3C
:10221000808F86859785978B868B0E94DA1288231C
:1022200039F04B2DF7016289C7010E94D70F01C019
:1022300080E02B960FB6F894DEBF0FBECDBFDF91C6
:10224000CF911F910F91FF90EF90DF90CF90BF90B3
:10225000AF9008952F923F924F925F926F927F922C
:102260008F929F92AF92BF92CF92DF92EF92FF92A6
:102270000F931F93CF93DF9300D000D01F92CDB761
:10228000DEB78C017B013A01DC0115968C91159724
:102290008130C9F414968C9181FF15C082FF1BC058
:1022A000F801438954896589768982859385A48557
:1022B000B58584179507A607B70769F0C8010E947E
:1022C0002E0E811108C081E090E0F8019383828393
:1022D00080E090E046C1630180C0D8015B968D919B
:1022E0009C915C97FC01F481F150B501A40129E0B7
:1022F00076956795579547952A95D1F7F423FD83F1
:1023000021E09222FF2309F474C080E092E0881952
:10231000990956018C159D0508F45C01D8015B965E
:10232000ED91FC915C9716962D903D904D905C90B0
:102330001997B2E02B1A310841085108058404C0EE
:10234000220C331C441C551C0A94D2F786859785B1
:10235000A089B189280E391E4A1E5B1EED812E0E02
:10236000311C411C511CA114F2E0BF0609F088C0C9
:1023700080910A0190910B01A0910C01B0910D0187
:1023800082159305A405B50559F48FEF9FEFDC0185
:1023900080930A0190930B01A0930C01B0930D015F
:1023A0009701B201A1018091E3029091E4020E94A1
:1023B0005B0B882309F487CF9EEFF91ACA18DB0854
:1023C000F80182859385A485B5858A0D9B1DA11D85
:1023D000B11D82879387A487B587D8011A968D90FF
:1023E0009D90AD90BC901D97C114D10409F075CF9C
:1023F0008AC08114910409F088CF16964D915D91A1
:102400006D917C911997411551056105710559F43C
:1024100057968D919D910D90BC91A02D0097A1058F
:10242000B10541F521C09E012F5F3F4F0E947613F9
:10243000882309F44ECF89819A81AB81BC81F80150
:10244000238D348DF9012789203129F448EF5FEF7E
:1024500060E070E004C048EF5FEF6FEF7FE084174B
:102460009507A607B70730F0C8010E94AF0B81118E
:102470004CCF29CFF80186839783A087B18745CFBA
:102480008114910429F5D8011A964D915D916D91B1
:102490007C911D9753968D919D910D90BC91A02D8F
:1024A000481759076A077B0798F00E94DA128823B9
:1024B00009F409CF20920A0130920B0140920C01DD
:1024C00050920D018091E20281608093E20208C087
:1024D00041E0C201B1010E941513882309F4F3CE33
:1024E000C4018B519D4FD7019C012A0D3B1DFC015E
:1024F000E217F30719F04D914193FACFE81BF90B5E
:10250000EE0EFF1E5BCF53968D919D910D90BC9169
:10251000A02DF801248188159905AA05BB0538F47A
:10252000838A948AA58AB68A206824830CC0809105
:10253000DC029091DD02892B31F06114710419F0F5
:102540002068F8012483D80114968C9183FD02C081
:10255000C30107C0C8010E94CA0E882309F4B3CE84
:10256000F7CF0F900F900F900F900F90DF91CF91BA
:102570001F910F91FF90EF90DF90CF90BF90AF90A1
:102580009F908F907F906F905F904F903F902F9093
:102590000895CF93DF931F92CDB7DEB7698341E0F3
:1025A00050E0BE016F5F7F4F0E942A110F90DF91B4
:1025B000CF9108958091E202882399F140910A0118
:1025C00050910B0160910C0170910D0125EE32E0EC
:1025D0008091E3029091E4020E945B0B882319F141
:1025E0004091DE025091DF026091E0027091E102C1
:1025F000411551056105710591F025EE32E080919C
:10260000E3029091E4020E945B0B882361F0109238
:10261000DE021092DF021092E0021092E1021092AC
:10262000E20281E0089580E00895CF92DF92EF9278
:10263000FF92CF936B017C01C42F80910A0190918E
:102640000B01A0910C01B0910D018C159D05AE05FB
:10265000BF05D1F00E94DA12811102C080E01AC0D9
:1026600025EE32E0B701A6018091E3029091E402E9
:102670000E94080B882391F3C0920A01D0920B01AB
:10268000E0920C01F0920D018091E2028C2B80937C
:10269000E20281E0CF91FF90EF90DF90CF9008951C
:1026A000CF92DF92EF92FF926B017C010E94DA12CF
:1026B0008823B1F0E5EEF2E0119284E0E53EF80700
:1026C000D9F7C0920A01D0920B01E0920C01F0926E
:1026D0000D018091E20281608093E20281E001C0FD
:1026E00080E0FF90EF90DF90CF9008958F929F92BF
:1026F000AF92BF92CF92DF92EF92FF920F931F9310
:10270000CF93DF938C016A017B01E901FC01818594
:102710009285A385B4850196A11DB11D84179507E7
:10272000A607B70710F480E058C0F8014389548920
:10273000658976898789803129F4BB27AF2D9E2D45
:102740008D2D09C0D701C60127E0B695A7959795AD
:1027500087952A95D1F74C015D01840E951EA61E22
:10276000B71EC501B40180900A0190900B01A090A2
:102770000C01B0900D01681579058A059B0589F457
:10278000F8018789803199F4DD24EE24FF24F601D5
:10279000EE0FFF1FEB51FD4F80819181A0E0B0E073
:1027A00017C040E00E9415138111EACFBCCFE89416
:1027B000C7F8DD24EE24FF24F601EE0FFF1FEE0F15
:1027C000FF1FEB51FD4F80819181A281B381BF70CA
:1027D00088839983AA83BB8381E0DF91CF911F9186
:1027E0000F91FF90EF90DF90CF90BF90AF909F90B0
:1027F0008F9008954F925F926F927F92AF92BF92A7
:10280000CF92DF92EF92FF920F931F93CF93DF93BC
:1028100000D000D0CDB7DEB78C0149835A836B83DB
:102820007C835901C12CD12C7601412C42E0542EDD
:10283000612C712C49815A816B817C819E012F5FB3
:102840003F4FC8010E947613882359F1D301C2017A
:10285000F801058404C0880F991FAA1FBB1F0A94A2
:10286000D2F7C80ED91EEA1EFB1E49815A816B8120
:102870007C818789803129F488EF9FEFA0E0B0E068
:1028800004C088EF9FEFAFEFBFE0481759076A0712
:102890007B0780F2F501C082D182E282F38281E07F
:1028A00001C080E00F900F900F900F90DF91CF91BB
:1028B0001F910F91FF90EF90DF90CF90BF90AF905E
:1028C0007F906F905F904F9008954F925F926F92BC
:1028D0007F928F929F92AF92BF92CF92DF92EF92B0
:1028E000FF920F931F93CF93DF93EC016A017B015B
:1028F00028013901423051056105710508F474C0A1
:1029000049855A856B857C854F5F5F4F6F4F7F4F41
:102910004C155D056E057F0508F466C08B889C88A4
:10292000AD88BE888F89803129F477276F2D5E2D81
:102930004D2D09C0B701A601E7E07695679557953B
:102940004795EA95D1F7840E951EA61EB71E4091B5
:102950000A0150910B0160910C0170910D018416D8
:102960009506A606B70671F48F89803199F4DD24A7
:10297000EE24FF24F601EE0FFF1FEB51FD4F5182B5
:10298000408218C040E0C501B4010E9415138111B6
:10299000EBCF2AC0E894C7F8DD24EE24FF24F6012B
:1029A000EE0FFF1FEE0FFF1FEB51FD4F40825182D4
:1029B000628273828091E20281608093E2028A895E
:1029C000823080F08D819E81AF81B885880D991D00
:1029D000AA1DBB1D8093DE029093DF02A093E0024C
:1029E000B093E10281E001C080E0DF91CF911F91BF
:1029F0000F91FF90EF90DF90CF90BF90AF909F909E
:102A00008F907F906F905F904F9008952F923F929C
:102A10004F925F926F927F929F92AF92BF92CF92AE
:102A2000DF92EF92FF920F931F93CF93DF93CDB777
:102A3000DEB760970FB6F894DEBF0FBECDBF5C0166
:102A40004D875E876F87788B1901D9014D905D9016
:102A50006D907C90411451046104710431F0BFEF1A
:102A60004B1A5B0A6B0A7B0A10C0FC014080518044
:102A700062807380992493940D851E852F853889F3
:102A8000013011052105310509F0912CD501199668
:102A90002D913D914D915C911C972F5F3F4F4F4F72
:102AA0005F4F29873A874B875C87730162011D82DC
:102AB0001E821F821886F50181859285A385B485C3
:102AC0000D811E812F813885081719072A073B07BA
:102AD00008F056C029853A854B855C852C153D0547
:102AE0004E055F0550F4A2E0CA2ED12CE12CF12C4A
:102AF000B2E04B2E512C612C712C9E012F5F3F4F69
:102B0000B701A601C5010E9476138823C9F1498146
:102B10005A816B817C81D701C6010196A11DB11D2F
:102B2000452B462B472B19F02C013D010FC0AC0162
:102B3000BD0144195509660977090D851E852F8544
:102B40003889401751076207730779F02D813E815C
:102B50004F8158852F5F3F4F4F4F5F4F2D833E83EF
:102B60004F8358876C017D01A6CF0FEF1FEF2FEF2A
:102B70003FE0B701A601C5010E946514811118C08C
:102B800080E041C0D701C6010197A109B1098D8339
:102B90009E83AF83B88797018601AC01BD01C50153
:102BA0000E946514882361F3CD80DE80EF80F88475
:102BB0004C145D046E047F0428F3D1014D915D91A6
:102BC0006D917C91411551056105710599F4F101F3
:102BD00040825182628273829920A1F0FFEF4F1AE6
:102BE0005F0A6F0A7F0AD5014D925D926D927C92C9
:102BF000139708C093018201C5010E9465148111D9
:102C0000E6CFBECF81E060960FB6F894DEBF0FBE70
:102C1000CDBFDF91CF911F910F91FF90EF90DF908B
:102C2000CF90BF90AF909F907F906F905F904F90AC
:102C30003F902F900895AF92BF92CF92DF92EF9284
:102C4000FF920F931F93CF93DF9300D000D0CDB7A7
:102C5000DEB75C016A017B0182E090E0A0E0B0E0B9
:102C6000F50180839183A283B3839E012F5F3F4F41
:102C7000B701A601C5010E947613882311F100E077
:102C800010E09801B701A601C5010E9465148823D0
:102C9000C1F0C980DA80EB80FC80F5018789803142
:102CA00029F488EF9FEFA0E0B0E004C088EF9FEF29
:102CB000AFEFBFE0C816D906EA06FB06B0F281E026
:102CC00001C080E00F900F900F900F90DF91CF9197
:102CD0001F910F91FF90EF90DF90CF90BF90AF903A
:102CE00008958F929F92AF92BF92CF92DF92EF9210
:102CF000FF920F931F93CF93DF93EC01142F7093E8
:102D0000E4026093E302442341F1453010F080E097
:102D1000EFC040E060E070E0CB010E941513882313
:102D2000B1F320E1129FF0011124ED56FB4F808199
:102D30008F7769F784859585A685B7858436910553
:102D4000A105B10520F3C084D184E284F384C114C9
:102D5000D104E104F10421F4DACFC12CD12C7601A5
:102D600040E0C701B6010E941513882381F28091CB
:102D7000F0029091F1028115924049F63091F502EE
:102D8000332329F28091F3029091F402892B09F404
:102D9000BECF2091F202222309F4B9CF3A8B2C83C3
:102DA0001D8630E041E050E06D85062FCA01062EF9
:102DB00002C0880F991F0A94E2F72817390731F0EB
:102DC00081E0860F8D87683078F3A1CF2091FB02D8
:102DD0003091FC022115310519F040E050E008C0A7
:102DE0002091090330910A0340910B0350910C0389
:102DF0002D833E834F8358878091F3029091F40294
:102E000046015701880E991EA11CB11C8B8A9C8A11
:102E1000AD8ABE8AE091F602F091F702F98FE88F51
:102E2000A091F502B0E00E94D924680D791D8A1D99
:102E30009B1D6A8F7B8F8C8F9D8F15E0EE0FFF1F80
:102E40001A95E1F7E150FE4FEF2FFF27E695DC01E1
:102E5000CB018E0F9F1FA11DB11D8E879F87A88B51
:102E6000B98B8090F8029090F9028114910419F0C6
:102E7000A12CB12C08C08090050390900603A0906F
:102E80000703B0900803A7019601281B390B4A0BD2
:102E90005B0BDA01C901880D991DAA1DBB1D04C079
:102EA000B695A795979587950A95D2F789879A87BA
:102EB000AB87BC87853F3FE09307A105B10510F4C0
:102EC0008CE014C0853F9F4FA105B10510F480E14F
:102ED0000DC08091110390911203A0911303B09142
:102EE00014038A8F9B8FAC8FBD8F80E28F8B81E024
:102EF000DF91CF911F910F91FF90EF90DF90CF90D6
:102F0000BF90AF909F908F9008958091150590E0AD
:102F100020911605821B9109089520911605809134
:102F20001505281750F4E22FF0E0E95EFA4F808192
:102F300090E02F5F2093160508958FEF9FEF08957F
:102F4000E091160580911505E81730F4F0E0E95E90
:102F5000FA4F808190E008958FEF9FEF08950895D4
:102F6000CF92DF92EF92FF920F931F93CF93DF9355
:102F70007C01CB018A012091F104222389F0EB012D
:102F80006B01C40ED51ECC15DD0569F06991D70122
:102F9000ED91FC910190F081E02DC7010995F3CFEF
:102FA000642F0E946D19C801DF91CF911F910F917D
:102FB000FF90EF90DF90CF900895CF93DF931F9213
:102FC000CDB7DEB769832091F1042223D1F020919F
:102FD000F204203240F021E030E0FC013383228310
:102FE00080E090E015C08091F304E82FF0E0EC5011
:102FF000FB4F998190838F5F8093F3048093F20459
:1030000005C061E0CE0101960E946D1981E090E05B
:103010000F90DF91CF910895FC011382128248EE48
:1030200053E060E070E044835583668377838AEDE4
:1030300091E09183808308951092160510921505F2
:103040001092F3041092F2040C94B01881E0809373
:10305000F104609314051092F3041092F2040895A1
:103060000C9426180F93062F21E04091F20464EF90
:1030700074E0809114050E9416191092F3041092C6
:10308000F2041092F1040F9108958F929F92AF92E3
:10309000BF92CF92DF92EF92FF920F931F93CF9345
:1030A000DF93EC01F62ED42E48015901EE2019F1E0
:1030B0000E9426181E2D143008F013E01150B8F0AD
:1030C000E881F98128E0129FB0011124A501940143
:1030D00004C056954795379527956A95D2F7CA014A
:1030E000B9010190F081E02DCE010995E7CF60E0B4
:1030F000CE010E9432184D2D413208F040E22C2DB5
:1031000067E175E08F2D0E94CE181092160580930E
:103110001505DF91CF911F910F91FF90EF90DF90F8
:10312000CF90BF90AF909F908F900895CF92EF92E5
:103130000F931F93C22EE12C00E010E098010E9433
:1031400045181F910F91EF90CF90089521E00C94B6
:10315000961861E00C94321885EE94E00C940C18EB
:103160001092A40581E08093A2051092A10561E070
:1031700082E10E94BA1D61E083E10E94BA1DE9EB81
:10318000F0E080818E7F808380818D7F808388E4E2
:103190008093B80085E48093BC000895413208F024
:1031A00043C09091A4059111FCCF91E09093A405A8
:1031B0002093A2052FEF2093370510927C05240F52
:1031C00020937B059093A3059091A305880F892BED
:1031D0008093A3058091A105813061F41092A1052F
:1031E0008091A3058093BB008091BC0083FDF8CF44
:1031F00085EC01C085EE8093BC008091A4058130F0
:10320000E1F380917C05841710F440917C052DE753
:1032100035E0FB01D9018A2F821B841718F48D91A8
:103220008193F9CF842F089580E008950F93413260
:1032300008F04AC09091A4059111FCCF92E09093C0
:10324000A4050093A2059FEF9093370510927C058B
:1032500040937B05FB016DE775E0DB019A2F961B20
:10326000941718F491919D93F9CF1092A305909122
:10327000A305880F892B8093A3058091A105813038
:1032800061F41092A1058091A3058093BB00809109
:10329000BC0083FDF8CF85EC01C085EE8093BC00B7
:1032A000222321F08091A4058230E1F3809137053B
:1032B0008F3F61F080913705803251F08091370562
:1032C000803341F483E007C081E005C080E003C0A3
:1032D00082E001C084E00F910895613298F420915A
:1032E000A405243089F460935905FC018BE595E031
:1032F000DC012A2F281B261718F421912D93F9CFD2
:1033000080E0089581E0089582E0089585ED80933E
:10331000BC008091BC0084FDFCCF1092A4050895F0
:1033200085EC8093BC001092A40508951F920F9223
:103330000FB60F9211242F933F934F935F936F9388
:103340007F938F939F93AF93BF93EF93FF9380915E
:10335000B900887F803609F49EC078F5883209F478
:103360005DC090F4803109F456C038F4882309F424
:10337000F5C0883009F44FC0F5C0883109F44EC05B
:10338000803209F45FC0EEC0803409F46AC058F49A
:10339000803309F457C0883309F0E4C080933705BF
:1033A0000E949019DFC0803509F44FC0883509F4B8
:1033B0005DC0883409F0D6C0D3C0883909F4C4C0D0
:1033C000A8F4883709F467C038F4883609F463C074
:1033D000803709F460C0C6C0883809F4B5C08039A8
:1033E00009F45FC0803809F0BDC05BC0803B09F4C0
:1033F00083C038F4803A09F466C0883A09F47CC086
:10340000B1C0803C09F4A4C0883C09F4A1C0883B49
:1034100009F487C0A7C08091A30510C090917C05D6
:1034200080917B05981770F5E0917C0581E08E0F07
:1034300080937C05F0E0E358FA4F80818093BB00D5
:1034400085EC83C0809337058BC0E0917C0581E0DB
:103450008E0F80937C058091BB00F0E0E358FA4F1B
:10346000808390917C0580917B056BC0E0917C0509
:1034700081E08E0F80937C058091BB00F0E0E358E3
:10348000FA4F80838091A20581116AC081E0809308
:10349000A10584EA5EC083E08093A40510923805FC
:1034A000CFCF80913805803208F04EC0E0913805CA
:1034B00081E08E0F809338058091BB00F0E0E75CDF
:1034C000FA4F8083BDCF0E949019809138058032D9
:1034D00030F4E0913805F0E0E75CFA4F108260913B
:1034E000380570E0E0919D05F0919E0589E395E037
:1034F00009951092380536C084E08093A405109297
:103500005A0510925905E0919F05F091A005099583
:1035100080915905811105C081E080935905109271
:103520005B05E0915A0581E08E0F80935A05F0E02B
:10353000E55AFA4F80818093BB0090915A058091A3
:103540005905981708F47CCF85E88093BC000AC021
:1035500085EC8093BC001092A40504C0109237053E
:103560000E948619FF91EF91BF91AF919F918F912A
:103570007F916F915F914F913F912F910F900FBE6F
:103580000F901F901895FC01208120532A3008F0DD
:1035900020E0FC0181818053FAE02F9F800D1124EF
:1035A0000895DC01ED91FC910190F081E02D0994EA
:1035B000CF92DF92EF92FF920F931F93CF93DF93FF
:1035C000EC017B016A01CB0109960E94C31A888332
:1035D000F7010081112707FD1095212F312FF801E8
:1035E000E154F109E331F10558F5EC5CFF4F0C941F
:1035F000C424F7018181813639F082818E3611F43D
:1036000086E01DC087E01BC081E019C082E017C0C2
:10361000F7018281823711F484E011C088E00FC085
:10362000F7018281823711F483E009C085E007C089
:1036300089E005C08AE003C08BE001C08CE089838B
:10364000C70104960E94C31A8A83C6010E94C31A46
:103650008B83C60103960E94C31A8C83C60106960B
:103660000E94C31A8D83DF91CF911F910F91FF901C
:10367000EF90DF90CF90089581E00895CF93DF938E
:1036800068E670E085EE94E00E9430186091A50530
:103690007091A60585EE94E00E94D11A85EE94E023
:1036A0000E94A91841E050E068E670E085EE94E0E1
:1036B0000E94A61885EE94E00E948D1787FB88274C
:1036C00080F9C82F80E0D82F81E0C8278C2FDF91A8
:1036D000CF9108951F93CF93DF93CDB7DEB72B978C
:1036E0000FB6F894DEBF0FBECDBF68E670E085EE82
:1036F00094E00E9430186091A5057091A60585EEB2
:1037000094E00E94D11A85EE94E00E94A91847E047
:1037100050E068E670E085EE94E00E94A61885EE21
:1037200094E00E948D178F77982F92959F701AEFD3
:10373000782F919F700D112485EE94E07B870E9475
:103740008D179C013327F4E035952795FA95E1F71D
:10375000682F129F600D112485EE94E06A870E9405
:103760008D179C013327A4E035952795AA95E1F79D
:10377000582F129F500D112485EE94E059870E9416
:103780008D1785EE94E00E948D179C013327B4E0DD
:1037900035952795BA95E1F7482F129F400D1124D2
:1037A00085EE94E048870E948D179C01332794E0B2
:1037B000359527959A95E1F7382F129F300D1124F2
:1037C00085EE94E03F830E948D17FC01FF2724E0E3
:1037D000F595E7952A95E1F7282F1E9F200D1124D6
:1037E0003F81488559856A857B8580E090E02B96EE
:1037F0000FB6F894DEBF0FBECDBFDF91CF911F9102
:1038000008951F93CF93DF93EC0168E670E085EE97
:1038100094E00E9430186091A5057091A60585EE90
:1038200094E00E94D11A2D811AE0822F612F0E940C
:103830004F24682F660F680F660F620F85EE94E0C5
:103840000E94DD172C81822F612F0E944F24682F48
:10385000660F680F660F620F85EE94E00E94DD1719
:103860002B81822F612F0E944F24682F660F680FD3
:10387000660F620F85EE94E00E94DD1760E085EE32
:1038800094E00E94DD172A81822F612F0E944F242D
:10389000682F660F680F660F620F85EE94E00E9436
:1038A000DD172981822F612F0E944F24682F660F18
:1038B000680F660F620F85EE94E00E94DD17288185
:1038C000822F612F0E944F24682F660F680F660FAA
:1038D000620F85EE94E00E94DD176091A50570915E
:1038E000A60585EE94E00E94D11A85EE94E0DF9162
:1038F000CF911F910C94A9181F920F920FB60F929F
:1039000011242F933F938F939F93AF93BF938091F5
:10391000A8059091A905A091AA05B091AB05309199
:10392000A70523E0230F2D3720F40196A11DB11D1B
:1039300005C026E8230F0296A11DB11D2093A705FF
:103940008093A8059093A905A093AA05B093AB0511
:103950008091AC059091AD05A091AE05B091AF05F9
:103960000196A11DB11D8093AC059093AD05A09368
:10397000AE05B093AF05BF91AF919F918F913F91ED
:103980002F910F900FBE0F901F9018952FB7F8949E
:103990006091A8057091A9058091AA059091AB0549
:1039A0002FBF08953FB7F8948091AC059091AD0575
:1039B000A091AE05B091AF0526B5A89B05C02F3FDD
:1039C00019F00196A11DB11D3FBF6627782F892FE1
:1039D0009A2F620F711D811D911D42E0660F771FA6
:1039E000881F991F4A95D1F70895CF92DF92EF92E1
:1039F000FF92CF93DF936B017C010E94D21CEB01FD
:103A0000C114D104E104F10489F00E942F220E9424
:103A1000D21C6C1B7D0B683E734090F381E0C81A8A
:103A2000D108E108F108C851DC4FEACFDF91CF910E
:103A3000FF90EF90DF90CF900895789484B58260E6
:103A400084BD84B5816084BD85B5826085BD85B542
:103A5000816085BDEEE6F0E0808181608083E1E8F1
:103A6000F0E0108280818260808380818160808329
:103A7000E0E8F0E0808181608083E1EBF0E080812C
:103A800084608083E0EBF0E0808181608083EAE7FE
:103A9000F0E0808184608083808182608083808187
:103AA000816080838081806880831092C100089546
:103AB000833081F028F4813099F08230A1F00895AC
:103AC0008730A9F08830B9F08430D1F4809180003B
:103AD0008F7D03C0809180008F7780938000089550
:103AE00084B58F7702C084B58F7D84BD08958091A1
:103AF000B0008F7703C08091B0008F7D8093B000BD
:103B00000895CF93DF9390E0FC01EE54FF4F249192
:103B1000FC01EA53FF4F8491882349F190E0880F1C
:103B2000991FFC01E251FF4FA591B4918C519F4F19
:103B3000FC01C591D4919FB7611108C0F8948C9194
:103B4000209582238C93888182230AC0623051F4AD
:103B5000F8948C91322F309583238C938881822B1B
:103B6000888304C0F8948C91822B8C939FBFDF9143
:103B7000CF9108950F931F93CF93DF931F92CDB7EB
:103B8000DEB7282F30E0F901E256FF4F8491F901AA
:103B9000EE54FF4F1491F901EA53FF4F04910023B3
:103BA000C9F0882321F069830E94581D6981E02FA4
:103BB000F0E0EE0FFF1FEC51FF4FA591B4919FB7BE
:103BC000F8948C91611103C01095812301C0812B61
:103BD0008C939FBF0F90DF91CF911F910F9108950C
:103BE0000F931F93762F90E0FC01EE54FF4F6491EA
:103BF000FC01EA53FF4FE4917111762FF0E0EE0FD4
:103C0000FF1FE652FF4F8591949189019A013F7001
:103C1000472F0E94AC00611571058105910531F0B7
:103C20006F5F7F4F8F4F9F4F9F7003C060E070E0CA
:103C3000CB011F910F910895FC01818D228D90E0A1
:103C4000805C9F4F821B91098F7399270895FC0117
:103C5000918D828D981731F0828DE80FF11D858D41
:103C600090E008958FEF9FEF0895FC01918D828D74
:103C7000981761F0828DDF01A80FB11D5D968C91C0
:103C8000928D9F5F9F73928F90E008958FEF9FEFCB
:103C9000089589EB9FE1892B49F080E090E0892B22
:103CA00029F00E94B91F81110C9400000895FC01B5
:103CB000848DDF01A80FB11DA35ABF4F2C91848DB5
:103CC00090E001968F739927848FA689B7892C93EA
:103CD000A089B1898C9180648C93938D848D981385
:103CE00006C00288F389E02D80818F7D808308954E
:103CF000CF93DF93EC01888D8823C9F0EA89FB8993
:103D0000808185FD05C0A889B9898C9186FD0FC089
:103D10000FB607FCF5CF808185FFF2CFA889B9895E
:103D20008C9185FFEDCFCE010E94571EE7CFDF912A
:103D3000CF910895CF92DF92FF920F931F93CF936D
:103D4000DF931F92CDB7DEB76C0181E0D6015896A4
:103D50008C9358975B969C915B975C968C915C9743
:103D6000981307C05096ED91FC915197808185FD85
:103D70002EC0F601038D10E00F5F1F4F0F73112748
:103D8000F02EF601848DF81211C00FB607FCF9CFA2
:103D9000D6015096ED91FC915197808185FFF1CF2E
:103DA000C60169830E94571E6981EBCF838DE80F9E
:103DB000F11DE35AFF4F6083D6015B960C935B972E
:103DC0005296ED91FC915397808180620CC0D60190
:103DD0005696ED91FC91579760835096ED91FC912A
:103DE000519780818064808381E090E00F90DF9123
:103DF000CF911F910F91FF90DF90CF900895BF92C8
:103E0000CF92DF92EF92FF92CF93DF93EC016A01A2
:103E10007B01B22EE889F98982E08083411581EE29
:103E2000580761057105A1F060E079E08DE390E04D
:103E3000A70196010E9483242150310941095109AB
:103E40005695479537952795211580E1380798F0C5
:103E5000E889F989108260E874E88EE190E0A701B2
:103E600096010E9483242150310941095109569538
:103E7000479537952795EC85FD853083EE85FF8541
:103E80002083188EEC89FD89B082EA89FB898081C4
:103E900080618083EA89FB89808188608083EA89E8
:103EA000FB89808180688083EA89FB8980818F7D9E
:103EB0008083DF91CF91FF90EF90DF90CF90BF9004
:103EC00008951F920F920FB60F9211242F938F9384
:103ED0009F93EF93FF93E091C005F091C10580811E
:103EE000E091C605F091C70582FD12C090818091D6
:103EF000C9058F5F8F732091CA05821751F0E09139
:103F0000C905F0E0E055FA4F958F8093C90501C0CF
:103F10008081FF91EF919F918F912F910F900FBE14
:103F20000F901F9018951F920F920FB60F921124A9
:103F30002F933F934F935F936F937F938F939F93B1
:103F4000AF93BF93EF93FF9380EB95E00E94571ED2
:103F5000FF91EF91BF91AF919F918F917F916F9161
:103F60005F914F913F912F910F900FBE0F901F9037
:103F7000189580EB95E00E941C1E21E0892B09F426
:103F800020E0822F08951092B3051092B20588EEBA
:103F900093E0A0E0B0E08093B4059093B505A093C2
:103FA000B605B093B7058AEE91E09093B105809382
:103FB000B00585EC90E09093BD058093BC0584EC42
:103FC00090E09093BF058093BE0580EC90E09093C5
:103FD000C1058093C00581EC90E09093C305809368
:103FE000C20582EC90E09093C5058093C40586ECF1
:103FF00090E09093C7058093C6051092C905109272
:10400000CA051092CB051092CC050895CF92DF928D
:10401000EF92FF920F931F93CF93DF937C016A017E
:10402000EB0100E010E00C151D0571F06991D7015E
:10403000ED91FC910190F081E02DC7010995892B4C
:1040400019F00F5F1F4FEFCFC801DF91CF911F9184
:104050000F91FF90EF90DF90CF900895611571055B
:1040600081F0DB010D900020E9F7AD0141505109CD
:10407000461B570BDC01ED91FC910280F381E02D92
:10408000099480E090E008950C942E20DC01ED91DD
:10409000FC910190F081E02D099466EF71E00C94A1
:1040A0002E200F931F93CF93DF93EC010E942E20BD
:1040B0008C01CE010E944D20800F911FDF91CF9186
:1040C0001F910F9108958F929F92AF92BF92CF92BE
:1040D000DF92EF92FF920F931F93CF93DF93CDB7B1
:1040E000DEB7A1970FB6F894DEBF0FBECDBF7C013F
:1040F000C42EE52FCB01D22E19A221E02D1510F0F0
:104100002AE0D22E8E010F5D1F4F8D2C912CA12CF9
:10411000B12C6C2D7E2FA50194010E9483248C2D3F
:10412000D29E80191124015011098A3014F4805D47
:1041300001C0895CF80180832115310541055105D5
:1041400021F0C22EE32FCA01E4CFB801C7010E94BB
:104150002E20A1960FB6F894DEBF0FBECDBFDF9123
:10416000CF911F910F91FF90EF90DF90CF90BF9074
:10417000AF909F908F900895CF92DF92EF92FF9231
:104180000F931F93CF93DF93EC016A017B012115FD
:10419000310579F4E881F9810190F081E02D642FF7
:1041A000DF91CF911F910F91FF90EF90DF90CF9013
:1041B00009942A303105E9F477FF1AC06DE20E94B4
:1041C00046208C0144275527BA014C195D096E0918
:1041D0007F092AE0CE010E946320800F911FDF91AA
:1041E000CF911F910F91FF90EF90DF90CF900895A6
:1041F0002AE0B701A601CE01DF91CF911F910F9167
:10420000FF90EF90DF90CF900C9463202115310543
:1042100041F4DC01ED91FC910190F081E02D642FDF
:1042200009940C9463209A01462F50E060E070E0FE
:104230000C9406219A01AB0160E070E00C94062119
:104240004F925F926F927F928F929F92AF92BF92A6
:10425000CF92DF92EF92FF920F931F93CF93DF9352
:10426000EC016A017B01B22E9A01AB01C701B601D4
:104270000E944B24882319F069EF71E027C02601C2
:104280003701E89477F82FEF3FEF4FE75FE7C3017F
:10429000B2010E944B2481110DC02FEF3FEF4FE779
:1042A0005FE7C301B2010E94952218161CF46DEF5E
:1042B00071E00CC02FEF3FEF4FE75FE4C701B6019D
:1042C0000E94E4231816ACF461E072E0CE01DF91A5
:1042D000CF911F910F91FF90EF90DF90CF90BF9003
:1042E000AF909F908F907F906F905F904F900C94C5
:1042F0002E202FEF3FEF4FE75FECC701B6010E9482
:10430000952287FDE1CF20E030E0A901C701B60189
:104310000E94952287FF0AC06DE2CE010E944620CE
:104320008C01F7FAF094F7F8F09402C000E010E086
:10433000A12C60E070E080E09FE3AB1441F020E04E
:1043400030E040E251E40E949922A394F6CF9B0111
:10435000AC01C701B6010E9431226B017C010E94B1
:1043600006232B013C010E9432239B01AC01C701B3
:10437000B6010E9430226B017C012AE0B301A20148
:10438000CE010E946320080F191FBB2039F06DE495
:1043900071E0CE010E942E20080F191F7B2C772080
:1043A00041F120E030E040E251E4C701B6010E9453
:1043B000E8236B017C010E9401234B01AA2497FC96
:1043C000A094BA2C2AE030E0B501A401CE010E94ED
:1043D000BC20080F191FC501B4010E9434239B01A2
:1043E000AC01C701B6010E9430226B017C017A94B6
:1043F000D6CFC801DF91CF911F910F91FF90EF9021
:10440000DF90CF90BF90AF909F908F907F906F90F4
:104410005F904F9008950C9420210F931F93CF939A
:10442000DF93EC010E9420218C01CE010E944D20DF
:10443000800F911FDF91CF911F910F9108950895E3
:104440000E941D1D0E941F220E94F100C9E4DEE1AE
:104450000E9453012097E1F30E94491EF9CF08956D
:104460005058BB27AA270ED075C166D130F06BD14A
:1044700020F031F49F3F11F41EF45BC10EF4E0957F
:10448000E7FB51C1E92F77D180F3BA1762077307B1
:104490008407950718F071F49EF58FC10EF4E0952E
:1044A0000B2EBA2FA02D0B01B90190010C01CA01EE
:1044B000A0011124FF27591B99F0593F50F4503E99
:1044C00068F11A16F040A22F232F342F4427585F8B
:1044D000F3CF469537952795A795F0405395C9F7A3
:1044E0007EF41F16BA0B620B730B840BBAF091505B
:1044F000A1F0FF0FBB1F661F771F881FC2F70EC0FA
:10450000BA0F621F731F841F48F4879577956795CC
:10451000B795F7959E3F08F0B3CF9395880F08F0B5
:104520009927EE0F979587950895D9D008F481E0E3
:1045300008950CD00FC107D140F0FED030F021F427
:104540005F3F19F0F0C0511139C1F3C014D198F395
:104550009923C9F35523B1F3951B550BBB27AA2704
:1045600062177307840738F09F5F5F4F220F331F76
:10457000441FAA1FA9F333D00E2E3AF0E0E830D042
:1045800091505040E695001CCAF729D0FE2F27D045
:10459000660F771F881FBB1F261737074807AB0713
:1045A000B0E809F0BB0B802DBF01FF2793585F4F88
:1045B0002AF09E3F510568F0B6C000C15F3FECF3A2
:1045C000983EDCF3869577956795B795F7959F5F4D
:1045D000C9F7880F911D9695879597F90895E1E0A1
:1045E000660F771F881FBB1F621773078407BA0700
:1045F00020F0621B730B840BBA0BEE1F88F7E0955B
:10460000089504D06894B111D9C00895BCD088F041
:104610009F5790F0B92F9927B751A0F0D1F0660FAE
:10462000771F881F991F1AF0BA95C9F712C0B130C9
:1046300081F0C3D0B1E00895C0C0672F782F8827DC
:10464000B85F39F0B93FCCF3869577956795B39508
:10465000D9F73EF490958095709561957F4F8F4F77
:104660009F4F0895E89409C097FB3EF4909580957C
:10467000709561957F4F8F4F9F4F9923A9F0F92F28
:1046800096E9BB279395F695879577956795B795A6
:10469000F111F8CFFAF4BB0F11F460FF1BC06F5F8C
:1046A0007F4F8F4F9F4F16C0882311F096E911C09E
:1046B000772321F09EE8872F762F05C0662371F0BF
:1046C00096E8862F70E060E02AF09A95660F771FD3
:1046D000881FDAF7880F9695879597F90895990FAF
:1046E0000008550FAA0BE0E8FEEF16161706E807BC
:1046F000F907C0F012161306E407F50798F0621BDD
:10470000730B840B950B39F40A2661F0232B242BB1
:10471000252B21F408950A2609F4A140A6958FEFD0
:10472000811D811D089597F99F6780E870E060E022
:1047300008959FEF80EC089500240A94161617063A
:1047400018060906089500240A9412161306140682
:1047500005060895092E0394000C11F4882352F0E5
:10476000BB0F40F4BF2B11F460FF04C06F5F7F4F9D
:104770008F4F9F4F089557FD9058440F551F59F084
:104780005F3F71F04795880F97FB991F61F09F3F3E
:1047900079F087950895121613061406551FF2CF67
:1047A0004695F1DF08C0161617061806991FF1CFB7
:1047B00086957105610508940895E894BB276627DE
:1047C0007727CB0197F908958ADF08F48FEF0895D2
:1047D0000BD0C0CFB1DF28F0B6DF18F0952309F079
:1047E000A2CFA7CF1124EACFC6DFA0F3959FD1F3C4
:1047F000950F50E0551F629FF001729FBB27F00D8F
:10480000B11D639FAA27F00DB11DAA1F649F6627E3
:10481000B00DA11D661F829F2227B00DA11D621F32
:10482000739FB00DA11D621F839FA00D611D221FEC
:10483000749F3327A00D611D231F849F600D211DD0
:10484000822F762F6A2F11249F5750408AF0E1F073
:1048500088234AF0EE0FFF1FBB1F661F771F881FBC
:1048600091505040A9F79E3F510570F05CCFA6CF04
:104870005F3FECF3983EDCF3869577956795B795A7
:10488000F795E7959F5FC1F7FE2B880F911D9695D1
:10489000879597F9089523DF880B990B0895991B45
:1048A00079E004C0991F961708F0961B881F7A9527
:1048B000C9F780950895AA1BBB1B51E107C0AA1F29
:1048C000BB1FA617B70710F0A61BB70B881F991FB1
:1048D0005A95A9F780959095BC01CD01089597FB55
:1048E000072E16F4009407D077FD09D00E945B24B0
:1048F00007FC05D03EF4909581959F4F08957095E3
:1049000061957F4F0895A1E21A2EAA1BBB1BFD01E2
:104910000DC0AA1FBB1FEE1FFF1FA217B307E4079E
:10492000F50720F0A21BB30BE40BF50B661F771FF6
:10493000881F991F1A9469F76095709580959095D6
:104940009B01AC01BD01CF010895052E97FB1EF41C
:1049500000940E94BC2457FD07D00E94832407FCCA
:1049600003D04EF40C94BC2450954095309521957D
:104970003F4F4F4F5F4F089590958095709561958B
:104980007F4F8F4F9F4F0895EE0FFF1F0590F491BB
:10499000E02D0994A29FB001B39FC001A39F700DA9
:1049A000811D1124911DB29F700D811D1124911D37
:1049B00008950E94CA24A59F900DB49F900DA49FB6
:1049C000800D911D11240895CF93DF9382309105BE
:1049D00010F482E090E0E0914F06F091500620E064
:1049E00030E0A0E0B0E0309739F1408151814817C4
:1049F0005907B8F04817590771F4828193811097CD
:104A000029F013969C938E9312972CC09093500686
:104A100080934F0627C02115310531F04217530707
:104A200018F0A901DB0101C0EF019A01BD01DF010E
:104A30000280F381E02DD7CF21153105F9F0281B35
:104A4000390B2430310580F48A819B816115710511
:104A500021F0FB019383828304C0909350068093DE
:104A60004F06FE01329644C0FE01E20FF31F819310
:104A7000919322503109398328833AC020914D0601
:104A800030914E06232B41F4209102013091030115
:104A900030934E0620934D06209100013091010184
:104AA0002115310541F42DB73EB7409104015091D5
:104AB0000501241B350BE0914D06F0914E06E217DF
:104AC000F307A0F42E1B3F0B2817390778F0AC0131
:104AD0004E5F5F4F2417350748F04E0F5F1F50930E
:104AE0004E0640934D068193919302C0E0E0F0E0C2
:104AF000CF01DF91CF910895CF93DF93009709F411
:104B000087C0FC01329713821282C0914F06D09168
:104B10005006209781F420813181280F391F809120
:104B20004D0690914E068217930779F5F0934E0645
:104B3000E0934D066DC0DE0120E030E0AE17BF0708
:104B400050F412964D915C9113979D0141155105BA
:104B500009F1DA01F3CFB383A28340815181840F3D
:104B6000951F8A179B0771F48D919C911197840F63
:104B7000951F02969183808312968D919C91139735
:104B8000938382832115310529F4F0935006E09335
:104B90004F063EC0D9011396FC93EE9312974D91A8
:104BA0005D91A40FB51FEA17FB0779F4808191810D
:104BB000840F951F0296D90111969C938E93828142
:104BC000938113969C938E931297E0E0F0E08A8194
:104BD0009B81009719F0FE01EC01F9CFCE010296FE
:104BE00028813981820F931F20914D0630914E0606
:104BF0002817390769F4309729F41092500610925B
:104C00004F0602C013821282D0934E06C0934D0607
:104C1000DF91CF910895FB01DC0104C08D910190DB
:104C2000801921F441505040C8F7881B990B089512
:104C3000FC018191861721F08823D9F799270895DF
:104C40003197CF010895FB01DC014150504048F0FD
:104C500001900D920020C9F701C01D9241505040B3
:104C6000E0F7089511E0C2E0D1E004C0FE010E9427
:0E4C7000C6242296C430D107C9F7F894FFCFAE
:104C7E0000005106800002000300FFFFFFFF5254A8
:104C8E0043206973204E4F542072756E6E696E67A5
:104C9E00210031383A32323A3237004465632032DD
:104CAE0033203230313500496E697469616C697A2E
:104CBE00696E6720534420636172642E2E2E00436A
:104CCE00617264206661696C65642C206F72206E5F
:104CDE006F742070726573656E7400636172642008
:104CEE00696E697469616C697A65642E00646174B9
:104CFE00616C6F675F736D617274706F742E747810
:104D0E0074006572726F72206F70656E696E6720C7
:104D1E00646174616C6F672E74787400000000001B
:104D2E00E50206205103C4023703690300000000A8
:104D3E007E0594056F06CE05D805AF052F00000041
:104D4E000000C912062000000000DD17B0178517FD
:104D5E008D17A017AF17000000009A1E06201C1E0C
:104D6E00351E271E781E0D0A006E616E00696E6676
:064D7E00006F76660000E4
:107800000C94343C0C94513C0C94513C0C94513CE1
:107810000C94513C0C94513C0C94513C0C94513CB4
:107820000C94513C0C94513C0C94513C0C94513CA4
:107830000C94513C0C94513C0C94513C0C94513C94
:107840000C94513C0C94513C0C94513C0C94513C84
:107850000C94513C0C94513C0C94513C0C94513C74
:107860000C94513C0C94513C11241FBECFEFD8E036
:10787000DEBFCDBF11E0A0E0B1E0ECE9FFE702C060
:1078800005900D92A230B107D9F712E0A2E0B1E065
:1078900001C01D92AD30B107E1F70E942D3D0C945F
:1078A000CC3F0C94003C982F959595959595959582
:1078B000905D8F708A307CF0282F295A8091C0000B
:1078C00085FFFCCF9093C6008091C00085FFFCCF60
:1078D0002093C6000895282F205DF0CF982F809127
:1078E000C00085FFFCCF9093C6000895EF92FF92F1
:1078F0000F931F93EE24FF2487018091C00087FD22
:1079000017C00894E11CF11C011D111D81E4E8164B
:1079100082E4F8068FE0080780E0180770F3E09132
:107920000401F091050109958091C00087FFE9CF1E
:107930008091C6001F910F91FF90EF9008950E94D3
:10794000763C982F8091C00085FFFCCF9093C600B5
:1079500091362CF490330CF09053892F089597555D
:10796000892F08951F930E949F3C182F0E949F3CCF
:107970001295107F810F1F9108951F93182F882350
:1079800021F00E94763C1150E1F71F9108951F935A
:10799000182F0E94763C803249F0809103018F5F5E
:1079A000809303018530C1F01F9108958091C0003C
:1079B00085FFFCCF84E18093C6008091C00085FFE5
:1079C000FCCF1093C6008091C00085FFFCCF80E102
:1079D0008093C6001F910895E0910401F091050184
:1079E00009951F9108950E94763C803241F0809164
:1079F00003018F5F80930301853081F008958091AA
:107A0000C00085FFFCCF84E18093C6008091C00058
:107A100085FFFCCF80E18093C6000895E0910401CA
:107A2000F09105010995089540E951E08823A1F0FE
:107A30002D9A28EE33E0FA013197F1F721503040CA
:107A4000D1F72D9828EE33E0FA013197F1F7215064
:107A50003040D1F7815061F708953F924F925F9285
:107A60006F927F928F929F92AF92BF92CF92DF924E
:107A7000EF92FF920F931F93CF93DF93000080E16B
:107A80008093C4001092C50088E18093C10086E015
:107A90008093C2005098589A259A81E00E94143D24
:107AA00024E1F22E9EE1E92E85E9D82E0FE0C02ECA
:107AB00010E1B12EAA24A394B1E49B2EA6E58A2E50
:107AC000F2E57F2EE0E26E2E79E4572E63E5462E36
:107AD00050E5352E0E94763C8033B1F18133B9F107
:107AE000803409F46FC0813409F476C0823409F41B
:107AF00085C0853409F488C0803531F1823521F1A3
:107B0000813511F1853509F485C0863509F48DC0BC
:107B1000843609F496C0843709F403C1853709F423
:107B200072C1863709F466C0809103018F5F80932C
:107B30000301853079F6E0910401F0910501099582
:107B40000E94763C803351F60E94F33CC3CF0E94E2
:107B5000763C803249F78091C00085FFFCCFF092DF
:107B6000C6008091C00085FFFCCF9092C600809136
:107B7000C00085FFFCCF8092C6008091C00085FFC9
:107B8000FCCF7092C6008091C00085FFFCCF609250
:107B9000C6008091C00085FFFCCF5092C600809146
:107BA000C00085FFFCCF4092C6008091C00085FFD9
:107BB000FCCF3092C6008091C00085FFFCCFB09210
:107BC000C60088CF0E94763C863808F4BDCF0E945C
:107BD000763C0E94F33C7ECF0E94763C803809F4CC
:107BE0009CC0813809F40BC1823809F43CC1883942
:107BF00009F48FC080E00E94C73C6CCF84E10E94F2
:107C0000BD3C0E94F33C66CF85E00E94BD3C0E94D3
:107C1000F33C60CF0E94763C809306010E94763C44
:107C2000809307010E94F33C55CF0E94763C80333D
:107C300009F41DC183E00E94BD3C80E00E94C73C66
:107C400049CF0E94763C809309020E94763C809343
:107C5000080280910C028E7F80930C020E94763C79
:107C6000853409F415C18091080290910902892B8D
:107C700089F000E010E00E94763CF801E85FFE4FDA
:107C800080830F5F1F4F80910802909109020817AF
:107C9000190788F30E94763C803209F045CF809125
:107CA0000C0280FF01C16091060170910701660F0F
:107CB000771F7093070160930601A0910802B091AD
:107CC00009021097C9F0E8E0F1E09B01AD014E0F09
:107CD0005F1FF999FECF32BD21BD819180BDFA9A17
:107CE000F99A2F5F3F4FE417F50799F76A0F7B1F4B
:107CF00070930701609306018091C00085FFFCCF5F
:107D0000F092C6008091C00085FFFCCFB092C60003
:107D1000E1CE83E00E94C73CDDCE82E00E94C73CFA
:107D2000D9CE0E94763C809309020E94763C8093D3
:107D300008028091060190910701880F991F909386
:107D40000701809306010E94763C853409F4A6C0A1
:107D500080910C028E7F80930C020E94763C8032D0
:107D600009F0B8CE8091C00085FFFCCFF092C6002C
:107D7000609108027091090261157105B9F140E046
:107D800050E080910C02A82FA170B82FB27011C0E2
:107D9000BB2309F45CC0E0910601F0910701319624
:107DA000F0930701E09306014F5F5F4F46175707B7
:107DB000E8F4AA2369F3F999FECF209106013091E6
:107DC000070132BD21BDF89A90B58091C00085FFB2
:107DD000FCCF9093C6002F5F3F4F30930701209355
:107DE00006014F5F5F4F4617570718F38091C00099
:107DF00085FDE5CE8091C00085FFF8CFE0CE81E023
:107E00000E94C73C67CE0E94763C803209F08CCE3F
:107E10008091C00085FFFCCFF092C6008091C00029
:107E200085FFFCCFE092C6008091C00085FFFCCFAB
:107E3000D092C6008091C00085FFFCCFC092C600E2
:107E40008091C00085FFFCCFB092C60043CEE09188
:107E50000601F091070194918091C00085FFFCCF4D
:107E60009093C6009CCF80E10E94C73C33CE0E9415
:107E7000763C0E94763C182F0E94763C112309F430
:107E800083C0113009F484C08FE00E94C73C22CE29
:107E900080910C02816080930C02E5CE80910C02EF
:107EA000816080930C0259CF809107018823880F4D
:107EB000880B8A2180930B02809106019091070123
:107EC000880F991F90930701809306018091080203
:107ED00080FF09C080910802909109020196909359
:107EE000090280930802F894F999FECF1127E091D6
:107EF0000601F0910701C8E0D1E08091080290915D
:107F00000902103091F40091570001700130D9F34B
:107F100003E000935700E89500915700017001308D
:107F2000D9F301E100935700E89509901990009169
:107F3000570001700130D9F301E000935700E89534
:107F40001395103498F011270091570001700130FB
:107F5000D9F305E000935700E895009157000170B0
:107F60000130D9F301E100935700E895329602976A
:107F700009F0C7CF103011F00296E5CF112480919F
:107F8000C00085FFB9CEBCCE8EE10E94C73CA2CD19
:0C7F900085E90E94C73C9ECDF894FFCF0D
:027F9C00800063
:040000030000780081
:00000001FF
